:100000000C94C2060C9409070C9409070C94090778
:100010000C9409070C9409070C9409070C94090720
:100020000C9409070C9409070C94D60E0C94A90F94
:100030000C944A1F0C9409070C9409070C940907A7
:100040000C9409070C9409070C9409070C940907F0
:100050000C9409070C94BE1F0C9409070C94090713
:100060000C9409070C9409070C9409070C940907D0
:100070000C9409070C9409070C9409070C940907C0
:100080000C9409070C9409070C9409070C940907B0
:100090000C9409070C9409070C9409070C940907A0
:1000A0000C9409070C9409070C94090701E1011647
:1000B000021602E101180218010F020F01170217C0
:1000C000012102210111021101E10112021202E1DA
:1000D0000109020901E10116021602E1011A021AE0
:1000E0000108020801080208011702170111021194
:1000F0000108020801160216011602160001E101AC
:100100000C020C02E10110021001210221010E0279
:100110000E01110211010C020C0109020901200259
:100120002001E10106020602E10118021801240281
:100130002401E10106020602E1011802180124026D
:10014000240001E10116021602E101180218011350
:100150000213010802080115021501E1011302133F
:1001600002E101270227011A021A010802080115FB
:10017000021501E10110021002E10104020401066E
:100180000206010B020B010C020C01110211010805
:10019000020801150215011C021C0001E101070201
:1001A0000702E101080208010F020F01E101050247
:1001B0000502E1010402040105020501180218010B
:1001C0001E021E00F1A1F1A22D082E08200A210B0B
:1001D0002F083008260227022F02300231022D029A
:1001E0002E02F1A300C001C002C003C0500A500695
:1001F0004F064F0A351E1F20212200000023242510
:1002000026272A2B141A0815170000001C180C1298
:10021000132D29041607090AC200C30B0D0E0F3354
:1002200034E11D1B0619050052001110363738281D
:10023000B0E0E2E3C02C50514F2CC1E7E6E42E01C0
:100240003A3B3C3D3E0000003F404142430101013A
:100250000101F901000000010101C8C9010101D437
:10026000D5D6D7C400C5012D2ECACB31010101015D
:10027000FA0100A90001CDCE2F30CC01A701010168
:1002800001ACAAAB01CF0101010101010101010192
:100290000000000101010101010101010101010052
:1002A0000000012425265401010101010101C600BD
:1002B000C701212223550101010101010100A9000B
:1002C000011E1F20566701010101CF01ACAAAB013D
:1002D00001276357580101010101010000000101DC
:1002E0000101010101D0D1D2D301000000010101BF
:1002F00001010101010101010101000101010101EF
:1003000001010101010101010001000101010101DF
:1003100001010101010101010101010101010101CD
:100320000A002530325800626F756E6365213A20ED
:10033000004B6579626F6172642073746172742E10
:100340000A0055534220636F6E6669677572656473
:100350002E0A000D0A696E69740A005B445D005B39
:10036000435D000A034700480036003000000012D9
:10037000036700650065006B006800610063006B47
:100380000000000403090409028D00050100A032E9
:1003900009040000010301010009211101000122EB
:1003A00040000705810308000A0904010001030158
:1003B0000200092111010001224D000705820308F6
:1003C000000A0904020001030000000921110100D4
:1003D000012236000705830308000A09040300020E
:1003E00003000000092111010001222200070584F9
:1003F0000320000107050403200001090404000193
:1004000003000000092111010001223900070585C0
:10041000032000011201100100000008EDFE6060E1
:1004200001000102000105010906A101050719E00B
:1004300029E71500250195087501810205081901B4
:10044000290595057501910295017503910105072F
:10045000190029F71500250195F875018102C006DC
:1004600031FF0974A1010975150026FF009520755B
:100470000881020976150026FF0095207508910273
:10048000C005010980A101850216810026B7001A66
:1004900081002AB700751095018100C0050C090183
:1004A000A1018503160100269C021A01002A9C0264
:1004B000751095018100C005010902A1010901A182
:1004C000000509190129051500250195057501810A
:1004D0000295017503810105010930093115812556
:1004E0007F95027508810609381581257F9501756C
:1004F000088106050C0A38021581257F95017508CB
:100500008106C0C005010906A101050719E029E718
:100510001500250195087501810295017508810175
:1005200005081901290595057501910295017503C5
:1005300091010507190029FF150026FF0095067592
:10054000088100C0636F6E73756D65723A20253047
:1005500034580A0073797374656D3A202530345825
:100560000A000A002530325820006B6579626F61FD
:1005700072643A20004C45443A20253032580A0033
:10058000253032583A20253031366225730A007200
:100590002F632030313233343536373839414243D6
:1005A0004445460A0064656C5F6B65795F626974F7
:1005B0003A2063616E27742064656C3A20253032DE
:1005C000580A006164645F6B65795F6269743A2000
:1005D00063616E2774206164643A20253032580AC2
:1005E00000646F6E652E0A00626F6F746D616769DB
:1005F00063207363616E3A202E2E2E2000290A009C
:100600002575002F002575005D2800256400200059
:10061000256400200025640020002564007C00255E
:10062000303258006D6F7573656B6579205B62744D
:100630006E7C782079207620685D287265702F6145
:10064000636C293A205B006D6B5F776865656C5F52
:1006500074696D655F746F5F6D6178203D202564FE
:100660000A006D6B5F776865656C5F6D61785F73BD
:1006700070656564203D2025640A006D6B5F7469B8
:100680006D655F746F5F6D6178203D2025640A00A1
:100690006D6B5F6D61785F7370656564203D2025CB
:1006A000640A006D6B5F696E74657276616C203DE3
:1006B0002025640A006D6B5F64656C6179203D20C4
:1006C00025640A006D6B5F776865656C5F74696DA2
:1006D000655F746F5F6D6178203D2025640A006D51
:1006E0006B5F776865656C5F6D61785F737065657A
:1006F00064203D2025640A006D6B5F74696D655F41
:10070000746F5F6D6178203D2025640A006D6B5F1A
:100710006D61785F7370656564203D2025640A0013
:100720006D6B5F696E74657276616C203D20256427
:100730000A006D6B5F64656C6179203D2025640A59
:10074000000A00257500363A20776865656C5F748D
:10075000696D655F746F5F6D61783A20000A0025EE
:100760007500353A20776865656C5F6D61785F73F9
:10077000706565643A20000A00257500343A2074DB
:10078000696D655F746F5F6D61783A20000A0025BE
:100790007500333A206D61785F73706565643A2047
:1007A000000A00257500323A20696E746572766120
:1007B0006C286D73293A20000A00257500313A2013
:1007C00064656C6179282A31306D73293A20000AFA
:1007D000092D2056616C756573202D0A004D3E0071
:1007E0004D25643E20003F0073657420646566619A
:1007F000756C740A00433E2000776865726520645A
:10080000656C74613A20637572736F723D25642C58
:1008100020776865656C3D25640A536565206874BA
:1008200074703A2F2F656E2E77696B6970656469F5
:10083000612E6F72672F77696B692F4D6F757365C6
:100840005F6B6579730A000A092D204D6F7573651A
:100850006B6579202D0A4553432F713A09717569EB
:10086000740A313A0964656C6179282A31306D73F4
:10087000290A323A09696E74657276616C286D7363
:10088000290A333A096D61785F73706565640A34CB
:100890003A0974696D655F746F5F6D61780A353A06
:1008A00009776865656C5F6D61785F737065656415
:1008B0000A363A09776865656C5F74696D655F74BF
:1008C0006F5F6D61780A0A703A097072696E742000
:1008D00076616C7565730A643A09736574206465A2
:1008E0006661756C74730A75703A092B310A646F0E
:1008F000776E3A092D310A706775703A092B3130DD
:100900000A7067646F776E3A092D31300A0A737086
:10091000656564203D2064656C7461202A206D61EA
:10092000785F7370656564202A2028726570656140
:1009300074202F2074696D655F746F5F6D61782915
:100940000A003F004D3E2000433E20004C25640A33
:10095000000A092D20436F6E736F6C65202D0A45C8
:1009600053432F713A09717569740A6D3A096D6FB5
:100970007573656B65790A000A092D204D616769F9
:1009800063202D0A643A0964656275670A783A093A
:100990006465627567206D61747269780A6B3A09E3
:1009A0006465627567206B6579626F6172640A6D58
:1009B0003A096465627567206D6F7573650A763AEA
:1009C0000976657273696F6E0A733A09737461749C
:1009D00075730A633A09636F6E736F6C65206D6F90
:1009E00064650A302D343A096C61796572302D34B2
:1009F000284631302D4634290A506175733A096210
:100A00006F6F746C6F616465720A653A0965657031
:100A1000726F6D0A6E3A094E4B524F0A000A00255A
:100A200075002E6E6B726F3A20000A002575002E3D
:100A3000737761705F6261636B736C6173685F622F
:100A400061636B73706163653A20000A002575006D
:100A50002E737761705F67726176655F6573633A65
:100A600020000A002575002E6E6F5F6775693A20B9
:100A7000000A002575002E737761705F72616C74D7
:100A80005F726775693A20000A002575002E73773A
:100A900061705F6C616C745F6C6775693A20000A05
:100AA000002575002E636170736C6F636B5F746FEC
:100AB0005F636F6E74726F6C3A20000A00257500D8
:100AC0002E737761705F636F6E74726F6C5F6361BA
:100AD00070736C6F636B3A20000A00253032580047
:100AE0006B65796D61705F636F6E6669672E7261A9
:100AF000773A20000A002575002E6D6F7573653AF0
:100B000020000A002575002E6B6579626F617264A2
:100B10003A20000A002575002E6D61747269783ADA
:100B200020000A002575002E656E61626C653A2012
:100B3000000A00253032580064656275675F636F94
:100B40006E6669672E7261773A20000A002575008B
:100B500064656661756C745F6C617965723A2000DA
:100B60003F004E4B524F3A206F66660A004E4B5282
:100B70004F3A206F6E0A0074696D65725F7265612D
:100B800064333228293A202530346C580A006B65CA
:100B900079626F6172645F6E6B726F3A2025580ADA
:100BA000006B6579626F6172645F69646C653A209D
:100BB00025580A006B6579626F6172645F70726FAD
:100BC000746F636F6C3A2025580A00686F73745F06
:100BD0006B6579626F6172645F6C65647328293A32
:100BE0002025580A000A092D20537461747573205A
:100BF0002D0A004743433A20372E322E30204156EB
:100C0000522D4C4942433A20322E302E302041564C
:100C1000525F415243483A20617672350A004F5084
:100C200054494F4E533A204C55464120424F4F5461
:100C30004D41474943204D4F5553454B455920455C
:100C4000585452414B455920434F4E534F4C452029
:100C5000434F4D4D414E44204E4B524F203430397E
:100C6000360A004255494C443A20306464623131BE
:100C700038202831373A30363A3530204A616E20F4
:100C800020352032303138290A005649443A203084
:100C90007846454544286765656B6861636B292024
:100CA0005049443A2030783630363028474836307C
:100CB00029205645523A203078303030310A0044ED
:100CC0004553433A20742E6D2E6B2E206B6579624E
:100CD0006F617264206669726D7761726520666FFC
:100CE0007220474836300A000A092D205665727373
:100CF000696F6E202D0A000A6D6F7573653A206F5B
:100D000066660A000A6D6F7573653A206F6E0A0099
:100D10000A6B6579626F6172643A206F66660A00D9
:100D20000A6B6579626F6172643A206F6E0A000A1D
:100D30006D61747269783A206F66660A000A6D61A7
:100D4000747269783A206F6E0A000A64656275678A
:100D50003A206F6E0A000A64656275673A206F6612
:100D6000660A000A0A626F6F746C6F616465722EA6
:100D70002E2E2000433E20006565636F6E66696716
:100D80003A0A000011241FBECFEFDAE0DEBFCDBF6C
:100D900004B603FE27C08091540290915502A091A1
:100DA0005602B09157028730904BA740B04BD1F418
:100DB000109254021092550210925602109257024D
:100DC00014BE84B7877F84BF0FB6F894A89580912E
:100DD0006000886180936000109260000FBEE0E0C8
:100DE000F8E3099511E0A0E0B1E0E4E4F8E502C021
:100DF00005900D92AA33B107D9F722E0AAE3B1E03A
:100E000001C01D92A435B207E1F70E940C0C0C94AE
:100E1000202C0C940000FF93EF93E0913A01F091A5
:100E20003B01309709F00995EF91FF910895FC017E
:100E30008591803011F0EFDFFBCF0895FF27E0E2CE
:100E400030E247FF0CC0419597FF09C0EDE2609585
:100E5000709580959095611D711D811D911D27FFD5
:100E600002C0219530E350E2AA27660F771F881F42
:100E7000991FAA1FA41710F0A41B63955A95A9F7F0
:100E8000AA3008F0A95FA05DAF93F39561157105D5
:100E90008105910541F7ED3211F4EF93F395F217C7
:100EA00018F43F93F395FBCF8F91B5DFFA95E1F7F7
:100EB0000895E991F9918591803021F0853219F0FA
:100EC000AADFF9CF089520E0E89455915532C1F397
:100ED000503311F4689455915A3348F4505390F3B9
:100EE000220F022E220F220F200D250FF4CF0EF419
:100EF000219589919991533619F3533729F1533537
:100F000059F1BC0188279927E8945C3621F489912E
:100F1000999168945591543639F446EF7EF077FFF5
:100F20000DC08FEF9FEF0AC055374AE039F05835B2
:100F300040E121F0523642E009F00895FF93EF932B
:100F40007DDFEF91FF91B7CFFF93EF93FC0181918C
:100F50008030B9F360DFFBCFFF93EF9368DFF1CF11
:100F6000DF93CF93CDB7DEB72596A3DFCF91DF9187
:100F70000895FC01613071F038F0623089F063301F
:100F8000A9F090E080E0089582818823D1F38BE975
:100F900091E0089582818823A1F382E491E008958D
:100FA0008281882371F38DEF90E0089582818823F8
:100FB00041F38CEA90E008958AB1817F8AB98BB1C0
:100FC000817F8BB987B18F7387B988B18F7388B9E7
:100FD00008950E94DC0780B38C7080BB81B3836F5F
:100FE00081BB5098589A84B114B885B18FEF85B9F8
:100FF000A6E4B1E011961C921E92ECE3F1E011829E
:10100000108213961C921E921297138212821596CA
:101010001C921E9214971582148217961C921E928F
:1010200016971782168219961C921E92189711868F
:10103000108608952F923F924F925F926F927F9207
:101040008F929F92AF92BF92CF92DF92EF92FF92D8
:101050000F931F93CF93DF93CDB7DEB728970FB6CB
:10106000F894DEBF0FBECDBF0CE311E01D822D81D1
:10107000223009F4E5C008F0D7C0213009F4DDC002
:10108000519A599840EA4A95F1F71899DFC080E0E3
:1010900090E41999DEC0C12C40E2D42E1A99DCC02C
:1010A000E12C30E1F32E1B99DAC0A0E0B8E01F99E3
:1010B000D9C0E0E0F4E04899D8C060E072E01C9943
:1010C000D7C020E031E038872F831D99D4C020E8B5
:1010D000A22EB12C1E99D2C050E4852E912C7F995E
:1010E000D0C040E2642E712C7E99CEC030E1432EF8
:1010F000512C7D99CCC028E0222E312C7C99CAC07D
:1011000044E050E05A8349837999C7C022E030E037
:101110005FB1509551705B831C824B815C81842B45
:10112000952B8C299D298E299F298A2B9B2B8E2BD1
:101130009F2B862B972BEF81F8858E2B9F2B8A294F
:101140009B29882A992A68287928462857282428FC
:10115000352849815A81242A352A22293329F80140
:10116000819191918F018217930761F132973183B9
:10117000208380910001882311F18091350280FF46
:1011800004C087E293E00E9417078091350280FF38
:101190000EC0809100011F928F9382E293E09F9393
:1011A0008F930E94B0070F900F900F900F90809137
:1011B000350280FF04C080E293E00E94170785E0BB
:1011C000809300010E94DC07FD81FF5FFD83F53005
:1011D00009F04DCF80910001882361F08150809308
:1011E0000001882309F45CC08FE99FE00197F1F7C3
:1011F00000C0000081E028960FB6F894DEBF0FBE55
:10120000CDBFDF91CF911F910F91FF90EF90DF90B5
:10121000CF90BF90AF909F908F907F906F905F9096
:101220004F903F902F9008953D81333061F03430DE
:1012300009F026CF3F9A479825CF529A5A9822CF45
:10124000539A5B981FCF3E9A46981CCF90E080E05F
:1012500020CFD12CC12C22CFF12CE12C24CFB0E017
:10126000A0E025CFF0E0E0E026CF70E060E027CFFF
:1012700018861F822ACFB12CA12C2CCF912C812C27
:101280002ECF712C612C30CF512C412C32CF312CF0
:10129000212C34CF1A82198237CF30E020E038CFAA
:1012A00080913C0190913D019093470180934601CC
:1012B00080913E0190913F019093490180934801B4
:1012C000809140019091410190934B0180934A019C
:1012D000809142019091430190934D0180934C0184
:1012E000809144019091450190934F0180934E016C
:1012F00081CFE82FF0E0EE0FFF1FEA5BFE4F808109
:101300009181089581FF03C0229A2A980895229816
:10131000FCCF8091740108959FB7F8941092530107
:101320009FBF90914A02943009F049C02091E90092
:101330002F709091EC0090FD30C090E0922B24E053
:101340002093E9002091EB0020FF36C02091EE00B1
:1013500027FF32C020915001222321F02091E80084
:1013600025FF2AC01092500126E03091E80035FF99
:1013700016C08093F1008091E80085FD29C080911E
:10138000E80080FFFCCF8091E8008E778093E80032
:101390009F709093E90080E0089590E8CFCF30915E
:1013A0004A02343049F43091EB0035FD05C021503C
:1013B00041F481E0809350019F709093E9008FEF9A
:1013C0000895EFE9FFE03197F1F700C00000CDCFBD
:1013D0008FB7F89421E0209353018FBFD9CFCF93DB
:1013E000DF9300D01F92CDB7DEB79C0180914A02F7
:1013F000843019F593E099833B832A839093E90025
:101400008FEF9091E800815095FD06C095ED9A957B
:10141000F1F700008111F5CF8091E80085FF0DC044
:1014200050E040E063E070E0CE0101960E94CB0CFA
:101430008091E8008E778093E8000F900F900F90D6
:10144000DF91CF910895CF93DF9300D01F92CDB756
:10145000DEB720914A02243021F522E029839B83C4
:101460008A8383E08093E9008FEF9091E8008150B8
:1014700095FD06C095ED9A95F1F700008111F5CF25
:101480008091E80085FF0DC050E040E063E070E02F
:10149000CE0101960E94CB0C8091E8008E7780935C
:1014A000E8000F900F900F90DF91CF9108959C016D
:1014B00080914A028430F9F482E08093E9009FEF42
:1014C0008091E800915085FD06C085ED8A95F1F781
:1014D00000009111F5CF8091E80085FF0CC050E02D
:1014E00040E065E070E0C9010E94CB0C8091E8000B
:1014F0008E778093E8000895CF93DF93EC0180917D
:101500004A028430F9F480910B018823F1F0809134
:101510000C018823D1F085E08093E9008FEF909152
:10152000E800815095FD06C09AE29A95F1F700C057
:101530008111F5CF8091E80050E040E060E270E07A
:1015400085FD1AC0DF91CF91089581E08093E90075
:101550008FEF9091E800815095FD06C095ED9A952A
:10156000F1F700008111F5CF8091E80085FFEACF07
:1015700050E040E068E070E0CE010E94CB0C80912A
:10158000E8008E778093E80080E2FE01A4E5B1E0F8
:1015900001900D928A95E1F7D5CF8FE593E00E94F7
:1015A000170780914902811109C00E945B0E0E94B9
:1015B000B80E8091E20084608093E20008958BE58C
:1015C00093E00E9417071092490208950895209110
:1015D00051012F5F822F62E30E94B52B992319F0EE
:1015E0002093510108951092510180915301882355
:1015F000E9F080914A028430B9F49091E9009F703B
:101600008091EC0080FD13C080E0892B94E09093E2
:10161000E9009091EB0090FF04C09091EE0097FDDF
:101620000AC08F708093E90010925301089580E8FA
:10163000ECCF1092F1009091E80095FDFACF9091D7
:10164000E80090FFEECF9091E8009E779093E8003D
:10165000E8CF42E061EC81E00E94D90D42E061EC0C
:1016600082E00E94D90D42E061EC83E00E94D90D36
:1016700042E261EC84E00E94D90D42E261EC85E037
:101680000C94D90D80914C02833009F455C030F48C
:10169000813071F1823009F491C008958A3009F4E3
:1016A0007DC08B3009F463C0893009F044C080915B
:1016B0004B02813209F03FC080914F02909150025D
:1016C000009711F00497B9F58091E800877F809327
:1016D000E8008091E80082FF2AC08091F1008093A9
:1016E00074018091E8008B778093E8000C940D0ED4
:1016F00080914B02813AF9F48091E800877F8093D2
:10170000E80080914F0290915002892B61F460E2D1
:1017100084E591E070E00E941A0D8091E8008B77DB
:101720008093E800089560E090E080E0F3CF80913E
:101730004A028111CECF089580914B02813AD9F7A8
:1017400080914F0290915002892BA9F78091E80077
:10175000877F8093E8008091E80080FFFCCF809134
:101760000B018093F1008091E8008E77BDCF8091CE
:101770004B02813201F780914F0290915002892BE8
:10178000D1F68091E800877F8093E8000E940D0EDB
:1017900080914D0280930B010C94D81780914B02DD
:1017A000813249F68091E800877F8093E8000E94AB
:1017B0000D0E80914E0280937501089580914B0229
:1017C000813A09F0B8CF8091E800877F8093E800E4
:1017D0008091E80080FFFCCF80917501C2CF089511
:1017E000089580917401809352011092740180E0F9
:1017F0000E9482090E94CE120C94D8170C94F10B0F
:101800000E94081F80914802882329F00E94311FFE
:1018100081110C94B50C089584B7877F84BF0FB6EF
:10182000F894A89580916000886180936000109280
:1018300060000FBE80E890E00FB6F89480936100DE
:10184000909361000FBE8CE899E00E94C91E83E569
:1018500093E00E9417070E94EF0B0E94FB110E9469
:101860005B0E0E94B80E8091E20084608093E200DB
:10187000789480914A028430E1F782E493E00E94F8
:1018800017070E94FD1181E091E00E94391181E368
:1018900093E00E9417070E94F00B80914A02853066
:1018A00019F00E940312F9CF0E94000CF6CF0E949B
:1018B000461F809152018093740108950C94570C37
:1018C000292F33272330310579F158F421303105A0
:1018D000F1F02230310519F190E080E030E020E0B5
:1018E0001AC02132310599F122323105A9F765304C
:1018F00098F770E0FB01EE0FFF1FE65EFE4F2081C0
:1019000031816B5E7E4FFB01808190E004C082E1FB
:1019100090E024E134E0FA013183208308958DE8DA
:1019200090E027E833E0F7CF99278130910561F007
:1019300028F0029789F6E3E6F3E002C0E3E8F3E07B
:10194000849190E09F01E7CFEFE6F3E0F9CF6530B7
:1019500008F0C2CFE62FF0E0EE0FFF1FEC5DFE4F68
:101960002081318189E090E0D6CF80E189BD82E19C
:1019700089BD09B400FEFDCF8091D8008F7D809392
:10198000D8008091E00082608093E0008091E000C8
:1019900081FDFCCF0895AF92BF92CF92DF92FF926C
:1019A0000F931F93CF93DF936C01EB018A010E9489
:1019B0002C0EF82E811123C00115110539F0F80104
:1019C00080819181C81BD90BC80ED91EB12CA12CC6
:1019D0002097A9F08091E80085FD22C08091E80061
:1019E0008E778093E80001151105A1F0F801808140
:1019F0009181A80EB91EB182A08285E0F82E8F2DAC
:101A0000DF91CF911F910F91FF90DF90CF90BF900A
:101A1000AF9008950E942C0E8823D1F2F82EEFCFBC
:101A2000F60181916F018093F1002197FFEFAF1ACA
:101A3000BF0ACECFFC0180915102909152028617CD
:101A40009707A0F06115710529F49091E8009E7741
:101A50009093E80090E06115710551F4911108C070
:101A60008091E80082FF35C080E00895BC01F2CF8C
:101A700080914A028823C9F18530C9F18091E8003C
:101A800083FD31C08091E80082FDEACF8091E800BB
:101A900080FFE1CF2091F3008091F200322F282FB8
:101AA0006115710519F02830310558F091E02830A2
:101AB000310509F090E02091E8002E772093E800AE
:101AC000CACF81918093F100615071092F5F3F4F20
:101AD000E7CF80914A02882341F0853041F0809120
:101AE000E80083FFBDCF81E0089582E0089583E0A0
:101AF0000895FC0180915102909152028617970738
:101B0000A0F06115710529F48091E8008E7780932B
:101B1000E80090E06115710551F4911108C08091C1
:101B2000E80082FF36C080E00895BC01F2CF8091CA
:101B30004A028823D1F18530D1F18091E80083FDFC
:101B400032C08091E80082FDEACF8091E80080FFFA
:101B5000E1CF2091F3008091F200322F282F611500
:101B6000710519F02830310558F091E02830310521
:101B700009F090E08091E8008E778093E800CACF6A
:101B800084918093F1003196615071092F5F3F4F2E
:101B9000E6CF80914A02882341F0853041F0809160
:101BA000E80083FFBCCF81E0089582E0089583E0E0
:101BB0000895982F973028F08F708093E90081E086
:101BC00008959093E900242F762F50E0981731F074
:101BD0007091EC002091ED005091F00021FD02C0C9
:101BE0009F5FE8CF3091EB003E7F3093EB00309168
:101BF000ED003D7F3093ED003091EB00316030938C
:101C0000EB007093EC002093ED005093F0002091D6
:101C1000EE0027FDE5CF80E0089580914B0287FF1D
:101C200013C08091E80082FF06C08091E8008B77A6
:101C30008093E80004C080914A028111F2CF089598
:101C400080914A028823D9F38091E80080FFF8CF81
:101C50008091E8008E77ECCF2091E4003091E50090
:101C600085E69091EC0090FF06C09091E80090FF0F
:101C700006C080E008959091E80092FDFACF90911F
:101C80004A02992391F0953091F09091EB0095FDE7
:101C900010C04091E4005091E5002417350709F386
:101CA00081509A01F1F684E0089582E0089583E07E
:101CB000089581E008950E94C90E0E94D10EE0EEC1
:101CC000F0E0808181608083E8EDF0E080818F77B3
:101CD000808319BCA7EDB0E08C918E7F8C938081BE
:101CE0008F7E80831092490208950F931F93CF93A4
:101CF000DF930E94C90E0E94D10EC8EDD0E088810A
:101D00008F77888388818068888388818F7D8883A6
:101D100019BC10924A021092460210924802109288
:101D2000470200EE10E0F80180818B7F808388817C
:101D30008160888342E060E080E00E94D90DE1EE9E
:101D4000F0E080818E7F8083E2EEF0E08081816030
:101D50008083808188608083F80180818E7F80838A
:101D6000888180618883DF91CF911F910F910895C1
:101D7000E8EDF0E080818F7E8083E7EDF0E0808108
:101D80008160808384E082BF81E0809349020C946B
:101D9000750EE8EDF0E080818E7F80831092E20086
:101DA00008951092DA001092E10008951F920F92A8
:101DB0000FB60F9211242F933F934F935F936F931E
:101DC0007F938F939F93AF93BF93EF93FF938091F4
:101DD000E10082FF0BC08091E20082FF07C080918A
:101DE000E1008B7F8093E1000E94E70A8091DA0096
:101DF00080FF19C08091D80080FF15C08091DA0063
:101E00008E7F8093DA008091D90080FF94C080E1BA
:101E100089BD82E189BD09B400FEFDCF81E08093D8
:101E20004A020E94CD0A8091E10080FF19C0809192
:101E3000E20080FF15C08091E2008E7F8093E20077
:101E40008091E20080618093E2008091D8008062FE
:101E50008093D80019BC85E080934A020E94FE0B53
:101E60008091E10084FF29C08091E20084FF25C0B9
:101E700080E189BD82E189BD09B400FEFDCF80917A
:101E8000D8008F7D8093D8008091E1008F7E809371
:101E9000E1008091E2008F7E8093E2008091E20079
:101EA00081608093E20080914602882309F449C052
:101EB00084E080934A020E945E0C8091E10083FFDF
:101EC00029C08091E20083FF25C08091E100877FD7
:101ED0008093E10082E080934A0210924602809152
:101EE000E1008E7F8093E1008091E2008E7F8093FD
:101EF000E2008091E20080618093E20042E060E0D5
:101F000080E00E94D90D8091F00088608093F000FD
:101F10000E94E60AFF91EF91BF91AF919F918F913F
:101F20007F916F915F914F913F912F910F900FBED5
:101F30000F901F90189519BC10924A020E94DF0A58
:101F400072CF8091E30087FD02C081E0B2CF83E0D1
:101F5000B0CF1F920F920FB60F9211242F933F9381
:101F60004F935F936F937F938F939F93AF93BF93A1
:101F7000CF93EF93FF93C091E900CF708091EC0075
:101F80001092E9008091F000877F8093F0007894B0
:101F90000E94E50F1092E9008091F0008860809324
:101FA000F000C093E900FF91EF91CF91BF91AF9105
:101FB0009F918F917F916F915F914F913F912F9161
:101FC0000F900FBE0F901F9018951F93CF93DF9324
:101FD000CDB7DEB7AA970FB6F894DEBF0FBECDBF60
:101FE000EBE4F2E08091F100819322E0E335F20727
:101FF000C9F70E94420B8091E80083FF42C08091A4
:102000004B0290914C029A3008F03BC0E92FF0E06F
:10201000E45FFF4E0C94D52B16103A1041103A1085
:1020200041109510B71041100C111911803879F03A
:10203000823839F580914F028F708093E90080914A
:10204000EB0085FB882780F91092E90006C080919B
:10205000470290914802911182609091E800977F29
:102060009093E8008093F1001092F1008091E800D5
:102070008E772DC0282F2D7F21F48823D1F0823038
:1020800059F18091E80083FF0AC08091E800877FC2
:102090008093E8008091EB0080628093EB00AA9629
:1020A0000FB6F894DEBF0FBECDBFDF91CF911F9169
:1020B000089580914D02813021F7933009F080E03E
:1020C000809348021092E9008091E800877F809316
:1020D000E8000E940D0ED5CF80914D028111F2CF04
:1020E00080914F028F7069F28093E9002091EB009C
:1020F00020FFE8CF933031F48091EB008062809331
:10210000EB00E0CF9091EB0090619093EB0021E029
:1021100030E001C0220F8A95EAF72093EA0010927E
:10212000EA008091EB008860EACF8111AACF10917C
:102130004D021F778091E3008078812B8093E3002C
:102140008091E800877F8093E8000E940D0E8091C7
:10215000E80080FFFCCF8091E30080688093E3007B
:1021600083E0111101C082E080934A028ACF805837
:10217000823008F086CF80914D0290914E028C3DC6
:1021800023E09207A1F583E08A838AE289834FB72F
:10219000F894DE01139620E03EE051E2E32FF0E0F8
:1021A00050935700E49120FF03C0E295EF703F5F2A
:1021B000EF708E2F90E0EA30C0F0C7968D939D931C
:1021C0002F5F243159F74FBF8091E800877F8093BC
:1021D000E8006AE270E0CE0101960E941A0D80913B
:1021E000E8008B778093E8004CCFC096E7CFAE0134
:1021F0004F5F5F4F60914F020E94600CBC01892BC2
:1022000009F43FCF9091E800977F9093E80089818F
:102210009A810E94790DE3CF803809F032CF809106
:10222000E800877F8093E800809146028093F10068
:102230001DCF811126CF90914D02923008F021CF11
:102240008091E800877F8093E800909346020E9487
:102250000D0E80914602882331F084E080934A027B
:102260000E94290B0ECF8091E30087FDF6CF81E01D
:10227000F5CF90937B0180937A010895E0917A01E4
:10228000F0917B01309721F00190F081E02D0994CD
:1022900080E00895EF92FF920F931F93CF93DF9307
:1022A0008C01E0917A01F0917B013097C1F10280BD
:1022B000F381E02D09958091350282FF30C080FFC7
:1022C00004C08AE695E00E941707D0E0C0E084E6EB
:1022D000E82E85E0F82E8091350280FF0EC0F801CF
:1022E000EC0FFD1F80811F928F93FF92EF920E944F
:1022F000B0070F900F900F900F902196C032D1052C
:1023000051F78091350280FF0AC082E695E0DF91A7
:10231000CF911F910F91FF90EF900C941707DF91D1
:10232000CF911F910F91FF90EF900895E0917A0166
:10233000F0917B01309721F00480F581E02D099424
:102340000895CF93DF93EC0180917801909179010A
:102350008C179D0701F1D0937901C0937801E0912A
:102360007A01F0917B013097B1F00680F781E02D82
:10237000CE010995809135028570853061F4DF9337
:10238000CF9384E595E09F938F930E94B0070F90C1
:102390000F900F900F90DF91CF910895CF93DF931F
:1023A000EC0180917601909177018C179D0701F1E6
:1023B000D0937701C0937601E0917A01F0917B018F
:1023C0003097B1F00084F185E02DCE010995809120
:1023D00035028570853061F4DF93CF9384E495E016
:1023E0009F938F930E94B0070F900F900F900F90C4
:1023F000DF91CF9108950C94CF120E94731F0E9419
:10240000E9070C946F215F926F927F928F929F9257
:10241000AF92BF92CF92DF92EF92FF920F931F93F2
:10242000CF93DF9300D000D01F92CDB7DEB70E94CC
:102430001A080DE711E0512C66246394712C852D48
:102440000E9479095C01F801C080D180C816D906C4
:1024500009F440C08091350281FD0E94D012F12C18
:10246000E12CCA24DB2443010E2C02C0880C991CE9
:102470000A94E2F7C60188219921892B21F1E9828A
:102480005A8221E0C4018A219B21892B09F420E092
:102490002B830E947C1F8160782F9D838C834981D0
:1024A0005A816B818D810E94061349815A816B810B
:1024B0007C818D810E94F41EF801808191818826A3
:1024C000992691828082FFEFEF1AFF0A8FE0E816CB
:1024D000F10449F653940E5F1F4FE5E05E12AFCF53
:1024E0008FEF89838A831B820E947C1F8160782FF3
:1024F0009D838C8349815A816B818D810E94061353
:102500000E94F31E0E94DA240E943E1190917C01E9
:10251000891769F10E943E1180937C0190913502E8
:102520009570953061F41F928F9385E795E09F93A6
:102530008F930E94B0070F900F900F900F90809193
:102540007C010F900F900F900F900F90DF91CF9123
:102550001F910F91FF90EF90DF90CF90BF90AF90C1
:102560009F908F907F906F905F900C94051F0F90BD
:102570000F900F900F900F90DF91CF911F910F91BF
:10258000FF90EF90DF90CF90BF90AF909F908F9093
:102590007F906F905F9008950C948209089508953C
:1025A000EF92FF920F931F93CF93DF938FE895E005
:1025B0000E941707D0E0C0E08EE2E82E81E0F82EFE
:1025C00000E815E08C2F0E9479090E94E61EFF9218
:1025D000EF929F938F93DF93CF931F930F930E945C
:1025E000B00721968DB79EB708960FB6F8949EBF98
:1025F0000FBE8DBFC530D10529F7DF91CF911F9157
:102600000F91FF90EF90089508950895CF93DF9371
:10261000CDB7DEB72B970FB6F894DEBF0FBECDBF98
:10262000942F4F83252F588769877A878B874A8510
:102630005B8581E0452B31F02F3F19F481E09F3F0E
:1026400009F080E080FD07C04F81588569857A8553
:102650008B850E94F41E1E821D8285E0FE01379646
:10266000DE01119601900D928A95E1F749815A8118
:102670006B817C818D819E812B960FB6F894DEBF95
:102680000FBECDBFDF91CF910C94C61ACF93C82F48
:10269000882309F4D4C08238C1F40E943E1181FD20
:1026A000CEC089E30E94C41D0E94A31E2FEF81EEBD
:1026B00094E0215080409040E1F700C0000089E3A1
:1026C0000E94121ECF910C94A31E8338A1F40E9485
:1026D0003E1180FDB4C083E50E94C41D0E94A31E6C
:1026E0002FEF81EE94E0215080409040E1F700C050
:1026F000000083E5E5CF8438A1F40E943E1182FDFD
:102700009EC087E40E94C41D0E94A31E2FEF81EE8D
:1027100094E0215080409040E1F700C0000087E441
:10272000CFCF8CEF8C0F813A48F48C2F0E9439293F
:10273000811185C08C2F0E94C41DC4CF80E28C0FF4
:10274000883048F4C77081E001C0880FCA95EAF765
:102750000E94681EB7CF8BE58C0F833068F481E848
:1027600090E0C53A31F083E890E0C63A11F482E88F
:1027700090E0CF910C94A11188E58C0F853108F081
:102780005EC082EE90E0C83A09F456C089EE90E04F
:10279000C93A09F451C08AEE90E0CA3A09F44CC033
:1027A00085EB90E0CB3A09F447C086EB90E0CC3A59
:1027B00009F442C083EB90E0CD3AF1F184EB90E074
:1027C000CE3AD1F187EB90E0CF3AB1F18CEC90E0CA
:1027D000C13B91F18DEC90E0C03B71F183E891E059
:1027E000C23B51F18AE891E0C33B31F182E991E0CB
:1027F000C43B11F184E991E0C53BF1F081E292E044
:10280000C63BD1F083E292E0C73BB1F084E292E0B4
:10281000C83B91F085E292E0C93B71F086E292E01C
:10282000CA3B51F087E292E0CB3B31F090E080E090
:10283000CC3B11F48AE292E0CF910C94CE11CF916F
:102840000895882309F466C08238B9F40E943E11C5
:1028500081FF60C089E30E94C41D0E94A31E2FEF68
:1028600081EE94E0215080409040E1F700C00000EC
:1028700089E30E94121E0C94A31E8338A1F40E94C7
:102880003E1180FF47C083E50E94C41D0E94A31E25
:102890002FEF81EE94E0215080409040E1F700C09E
:1028A000000083E5E6CF8438A1F40E943E1182FF48
:1028B00031C087E40E94C41D0E94A31E2FEF81EE49
:1028C00094E0215080409040E1F700C0000087E490
:1028D000D0CF9CEF980F913A60F290E2980F983029
:1028E00050F4877091E001C0990F8A95EAF7892F1B
:1028F0000E946E1EC0CF9BE5980F933020F490E0AD
:1029000080E00C94A111885A853120F490E080E099
:102910000C94CE110895882321F00E94681E0C9417
:10292000A31E0895882321F00E946E1E0C94A31EFE
:102930000895AF92BF92CF92DF92EF92FF920F93E2
:102940001F93CF93DF9300D000D01F92CDB7DEB797
:102950005C0185E0F501DE01119601900D928A95EA
:10296000E1F7F501408151812381348181E0211516
:10297000310531F05F3F19F481E04F3F09F080E00D
:1029800080FDC5C0F501F280E580E2946FE0E622AB
:10299000722F3D832C836F2D8D810E941D1D8C0114
:1029A0000E941C1D0E940E1CE12FE295EF70F0E0CA
:1029B000E452FB4E0C94D52BEC14EC14291529157C
:1029C000BA15EF158715871508168715F416F4162E
:1029D0009A1787158715B117F12FFF70EF2E107F0B
:1029E00019F0E29490EFE922FF20C9F0EE2029F0DF
:1029F0008E2D0E947C1E0E94A31E802F0F900F9090
:102A00000F900F900F90DF91CF911F910F91FF903A
:102A1000EF90DF90CF90BF90AF900C944613802F33
:102A20000E942114EE2009F472C08E2D0E94821E95
:102A30000F900F900F900F900F90DF91CF911F91FB
:102A40000F91FF90EF90DF90CF90BF90AF900C94DC
:102A5000A31E812F8F70D82E107F103219F0D294C0
:102A600080EFD822002379F0013009F460C0FF2004
:102A700009F46CC0EE2059F0F501858180FFBDCFCF
:102A80008F70858304C0FF2049F1E11012C08D2DA5
:102A90000F900F900F900F900F90DF91CF911F919B
:102AA0000F91FF90EF90DF90CF90BF90AF900C947C
:102AB0008B14E1E08D2DEE12EBCF0F900F900F9065
:102AC0000F900F90DF91CF911F910F91FF90EF909A
:102AD000DF90CF90BF90AF900C948D1EE11014C08A
:102AE0000E94901E8D2D0F900F900F900F900F90C1
:102AF000DF91CF911F910F91FF90EF90DF90CF90DA
:102B0000BF90AF900C949214F1E0EF12E9CF0F90C8
:102B10000F900F900F900F90DF91CF911F910F9119
:102B2000FF90EF90DF90CF90BF90AF900895FF207F
:102B300049F085E08E1558F30E94651E8D2109F439
:102B4000A6CFD0CFE4E0EE1510F3CCCFEE2051F2BB
:102B5000802F0F900F900F900F900F90DF91CF91DB
:102B60001F910F91FF90EF90DF90CF90BF90AF90AB
:102B70000C942114812F869586958370C9F081303D
:102B800031F6C8019370F11002C090E080E00F9020
:102B90000F900F900F900F90DF91CF911F910F9199
:102BA000FF90EF90DF90CF90BF90AF900C94CE113C
:102BB000C8019370F11002C090E080E00F900F9078
:102BC0000F900F900F90DF91CF911F910F91FF9079
:102BD000EF90DF90CF90BF90AF900C94A111802F19
:102BE000FF2099F00E9461230F900F900F900F909B
:102BF0000F90DF91CF911F910F91FF90EF90DF9099
:102C0000CF90BF90AF900C944D240E94C923ECCF7D
:102C1000812F837009F071C0F11079CF202F229598
:102C200026952770220F220F602F6F70C62ED12C91
:102C3000F12CE12C022E04C0CC0CDD1CEE1CFF1C80
:102C40000A94D2F760E070E0CB0104FF0FC06FE0A0
:102C500070E080E090E004C0660F771F881F991F26
:102C60002A95D2F760957095809590951695169552
:102C700013701230C1F060F56C297D298E299F29CF
:102C8000113051F10F900F900F900F900F90DF9136
:102C9000CF911F910F91FF90EF90DF90CF90BF9059
:102CA000AF900C94331C6C297D298E299F290F909D
:102CB0000F900F900F900F90DF91CF911F910F9178
:102CC000FF90EF90DF90CF90BF90AF900C944D1C91
:102CD0000E94331CC701B6010F900F900F900F9008
:102CE0000F90DF91CF911F910F91FF90EF90DF90A8
:102CF000CF90BF90AF900C94191C8695FF2011F0D7
:102D0000812F8170882309F402CF202F22952695E8
:102D10002770220F220F602F6F70C62ED12CF12C3E
:102D2000E12C022E04C0CC0CDD1CEE1CFF1C0A940E
:102D3000D2F760E070E0CB0104FF0FC06FE070E0FD
:102D400080E090E004C0660F771F881F991F2A95C6
:102D5000D2F760957095809590951695169513709D
:102D60001230C1F060F56C297D298E299F29113020
:102D700051F10F900F900F900F900F90DF91CF9126
:102D80001F910F91FF90EF90DF90CF90BF90AF9089
:102D90000C94F81C6C297D298E299F290F900F9087
:102DA0000F900F900F90DF91CF911F910F91FF9097
:102DB000EF90DF90CF90BF90AF900C940A1D0E94CF
:102DC000F81CC701B6010F900F900F900F900F9055
:102DD000DF91CF911F910F91FF90EF90DF90CF90F7
:102DE000BF90AF900C94E61C003F09F445C060F41E
:102DF00080E4800F803228F1FF2009F496C0E110B2
:102E0000FCCD812F8F715AC0023F09F468C008F4CD
:102E100051C0033F89F7FF2009F476C0812F8F71DD
:102E20000F900F900F900F900F90DF91CF911F9107
:102E30000F91FF90EF90DF90CF90BF90AF900C94E8
:102E40006C1CC02E812F8F71102F1071FF2051F03C
:102E50000E94811C8C2D8295807F111119CE802FAC
:102E60008F7016CE0E94A21C8C2D8295807F11112E
:102E70003ACE802F8F7037CEFF20B9F0F4E0FE15E8
:102E800008F445CE812F8F710F900F900F900F9007
:102E90000F90DF91CF911F910F91FF90EF90DF90F6
:102EA000CF90BF90AF900C94C51C85E08E1508F4B0
:102EB0002ECEE8CF812F8F71FF20A9F00F900F90B9
:102EC0000F900F900F90DF91CF911F910F91FF9076
:102ED000EF90DF90CF90BF90AF900C94811C812F2A
:102EE0008F71FF2059F30F900F900F900F900F905C
:102EF000DF91CF911F910F91FF90EF90DF90CF90D6
:102F0000BF90AF900C94A21C0F900F900F900F9059
:102F10000F90DF91CF911F910F91FF90EF90DF9075
:102F2000CF90BF90AF900C94671CE11011CE812F11
:102F30008F71D9CF412F4F70602FC5010E94B90703
:102F40000F900F900F900F900F90DF91CF911F91E6
:102F50000F91FF90EF90DF90CF90BF90AF900C94C7
:102F60006F1B412F4F70602FC5010F900F900F9076
:102F70000F900F90DF91CF911F910F91FF90EF90E5
:102F8000DF90CF90BF90AF900C9494200E948A1E47
:102F90000E94571E0E94A31E0E947C250E944D2461
:102FA00090E080E00E94A11190E080E00C94CE11AE
:102FB0000E94791E0C94C6171F93CF93DF9300D005
:102FC00000D01F92CDB7DEB7942F4983252F5A83A7
:102FD0006B837C838D834C815D8181E0452B31F057
:102FE0002F3F19F481E09F3F09F080E0182F117006
:102FF00080FD3AC049815A816B817C818D810E941C
:103000001D1D292F22952F702C3078F42A3008F5B9
:103010002250223090F0812F0F900F900F900F9040
:103020000F90DF91CF911F9108952C3011F02F3028
:1030300091F793FB112710F9EECF853A30F48430E5
:1030400010F4823030F411E0E6CF90E2980F98301F
:10305000D0F3883E30F4803EB0F78450813AD8F601
:10306000F2CF803FC1F6EFCF10E0D5CFCF93DF9303
:1030700000D000D01F92CDB7DEB70F900F900F9009
:103080000F900F90DF91CF910895CF93DF9300D0F1
:1030900000D000D0CDB7DEB726960FB6F894DEBFCD
:1030A0000FBECDBFDF91CF9108951F93CF93DF93D4
:1030B000C091870116E0809188018C1304C0DF91D4
:1030C000CF911F910895D0E01C9FF0011D9FF00D3E
:1030D0001124E757FE4F40815181628173818481C1
:1030E00095810E9445182196C770E5CF4091B9019E
:1030F0005091BA016091BB017091BC018091BD01FA
:103100009091BE010C9445181F93CF93DF9380914B
:10311000BE01807FD1F48091BB018823B1F0809102
:103120008701D0918801B091B901C091BA01409155
:10313000BC015091BD01A1E0BF3F09F0A0E0BA0180
:103140006095709516E0D81304C0DF91CF911F9160
:10315000089521E04115510521F02A2FCF3F09F0B4
:1031600020E090E020FD38C0189FF001199FF00D7D
:103170001124E757FE4F21812C132EC020812B13E1
:103180002BC02281211128C02381348124173507C7
:1031900000F1241B350B283C3105F0F42091BE01D1
:1031A0002F7020612093BE0126E0289FF001299F07
:1031B000F00D1124E257FE4F80818F708061808373
:1031C00089EB91E00E949914DF91CF911F910C94AB
:1031D0005518260F371FDFCF01968770B4CFAF92F7
:1031E000BF92CF92DF92EF92FF920F931F93CF93F4
:1031F000DF93CDB7DEB761970FB6F894DEBF0FBE91
:10320000CDBF7C0185E0F701DE011D9601900D9296
:103210008A95E1F7D7014C9111965C91119712961E
:10322000DC90129713960D911C913091B901609129
:10323000BA018091BC019091BD0121E0009731F06D
:103240006F3F19F421E03F3F09F020E0B22FB17049
:10325000BB2E20FD89C1A090BB01AA2009F425C185
:1032600008171907D8F1F801E81BF90BCF01CC2496
:10327000C394883C910508F0C12C8091BE01982F21
:10328000907FCC2009F4C4C0911189C0CD2C651366
:103290002AC0341328C0D11026C08F70806180935B
:1032A000BE010E94761889EB91E00E9499148091EA
:1032B000BE01D70115968C938C2D61960FB6F894AC
:1032C000DEBF0FBECDBFDF91CF911F910F91FF9059
:1032D000EF90DF90CF90BF90AF900895809590953C
:1032E000800F911FC4CF81E00115110531F05F3FC0
:1032F00019F481E04F3F09F080E080FD24C081E0B7
:103300008D25B82FB170AB2E80FF3FC08091870113
:103310002091880136E0821318C0702F198B088B1A
:103320006D2D89890E941D1D292F22952F70223015
:1033300000F1243028F59F7001F1F7019581907F0D
:10334000E1F4CB2CB9CF80E0DCCF90E0389FF001E6
:10335000399FF00D1124E757FE4F6181561306C0C7
:103360006081461303C062816D110FC001968770A2
:10337000D2CF9F7011F0882321F3805E883008F34C
:10338000C7010E949914BA2CDCCFDD2009F494CF38
:103390008091BE0181608093BE01C12C8DCF6513E9
:1033A00006C0341304C0D701DD2009F4A4C04D8742
:1033B0005E87DF86702F198B088B6D2D89890E949F
:1033C000DC17882309F4DEC0DD2009F4DBC080911E
:1033D000BE01803270F02091B9013091BA01388776
:1033E0002F8319861B870A878C87CE0107960E9438
:1033F000991486E0F701A9EBB1E001900D928A954E
:10340000E1F70E9484180E947618CC24C39454CF0C
:10341000911115C0702F198B088B6D2D89890E9411
:10342000361889EB91E00E94991486E0E9EBF1E00F
:10343000DF011D928A95E9F70E9476183DCF65134A
:1034400012C0341310C0D1100EC0F7018583C7011C
:103450000E949914E9EBF1E086E0DF011D928A9564
:10346000E9F7CA2C29CF4D875E87DF86702F198B2D
:10347000088B6D2D89890E94DC17882309F482C08E
:10348000DD2009F47FC08091BE01803208F4B1CF05
:103490002091B9013091BA013A8329831B821D839F
:1034A0000C838E83CE010196A2CF0817190788F1ED
:1034B000F801E81BF90BCF01C12C883C910508F0FD
:1034C0004BC0CD2CDD2009F45DC0651330C0341332
:1034D0002EC08091BE0180FD21C0982F907FF1F019
:1034E000D70115968C931597903F39F0982F907FC0
:1034F000905F8F70892B15968C93C7010E94991449
:1035000086E0F701A9EBB1E001900D928A95E1F711
:1035100093CF80959095800F911FCECF86E0F701D5
:10352000A9EBB1E001900D928A95E1F7C5CE4D87E8
:103530005E87DF86702F198B088B6D2D89890E941D
:10354000DC17811156CF8091BE0181608093BE014E
:10355000C7010E949914B0CE702F198B088B6D2D66
:1035600089890E94361861CFDD2061F04D875E8722
:10357000DF86702F198B088B6D2D89890E94DC17CF
:10358000811137CFC7010E9499143FCF1F93CF936A
:10359000DF93CDB7DEB72C970FB6F894DEBF0FBE22
:1035A000CDBF4F83588769877A878B879C87CE01E9
:1035B00007960E94EF18882309F442C09F818885EE
:1035C0002A853B85232B39F08F3F19F481E09F3FFB
:1035D00019F080E001C081E080FD08C04F8158856E
:1035E00069857A858B859C850E94451816E08091B7
:1035F000870190918801891709F467C0819FC001F4
:10360000112487579E4F0E94EF18882309F45DC04C
:10361000E09187011E9FF0011124E757FE4F408182
:10362000518162817381848195810E9445188091C6
:10363000870190E001968770992780938701D7CF03
:1036400086E0FE013796DE01119601900D928A9573
:10365000E1F79F8188852A853B85232B39F08F3FB1
:1036600019F481E09F3F19F080E001C081E080FD06
:10367000BDCF2091880130E0C9010196877099275C
:10368000409187014817190699F096E0929FD00162
:10369000939FB00D1124A757BE4FFE0131960190A4
:1036A0000D929A95E1F7809388010E9455189ECF5C
:1036B0000E94D817109288011092870186E0E9EBEA
:1036C000F1E0DF011D928A95E9F72C960FB6F89488
:1036D000DEBF0FBECDBFDF91CF911F910895DF9266
:1036E000EF92FF920F931F93CF93DF938C01892B5F
:1036F000B9F0E12CF12CDD24D394E8012196F801F6
:103700008491853709F46AC098F4843708F059C069
:10371000843008F06FC0813011F1823009F43CC070
:10372000DF91CF911F910F91FF90EF90DF9008955F
:10373000883709F45CC058F4863709F454C08737D9
:1037400079F78E2D0E94761E0E94A31E1FC09CE753
:10375000980F903728F78F770E94211417C00E5FBB
:103760001F4FFE01849190E2980F983060F48770AB
:10377000FD2D01C0FF0F8A95EAF78F2F0E947C1E56
:103780000E94A31E02C00E944613E8018F2D8150A3
:1037900008F033C08E01B1CF0E5F1F4FFE01849140
:1037A00090E2980F983050F48770FD2D01C0FF0F04
:1037B0008A95EAF78F2F0E94821EE2CF0E94211481
:1037C000E4CF0E5F1F4FFE01C491C150F0F28FE9AC
:1037D0009FE00197F1F700C00000F7CF0E5F1F4F89
:1037E000FE01F490D2CF0E94651EE82ECFCF0E943A
:1037F000791EAACF0E944613C9CFEFE9FFE03197A7
:10380000F1F700C00000C3CF60930A0270930B026F
:1038100080930C0290930D020C94041F0895609302
:103820000E0270930F0280931002909311020C9479
:10383000031F0F931F9300910E0210910F0220910E
:10384000100230911102602B712B822B932B60930D
:103850000E0270930F0280931002909311021F9139
:103860000F910C94031F0F931F9300910E02109160
:103870000F022091100230911102602371238223E4
:10388000932360930E0270930F0280931002909323
:1038900011021F910F910C94031F0F931F9300911E
:1038A0000E0210910F022091100230911102602738
:1038B00071278227932760930E0270930F028093E3
:1038C0001002909311021F910F910C94031F60E05E
:1038D00070E0CB010C94041C0F931F9341E050E067
:1038E00060E070E08A019B0104C0000F111F221FDD
:1038F000331F8A95D2F7C901B8011F910F910C941B
:10390000041C0F931F9341E050E060E070E004C09E
:10391000440F551F661F771F8A95D2F780910A02C0
:1039200090910B02A0910C02B0910D028A019B01B3
:10393000082B192B2A2B3B2BC901B8011F910F9182
:103940000C94041C0F931F9341E050E060E070E082
:1039500004C0440F551F661F771F8A95D2F7CB010D
:10396000BA01609570958095909500910A0210912A
:103970000B0220910C0230910D02602371238223EF
:1039800093231F910F910C94041C0F931F9341E0FC
:1039900050E060E070E004C0440F551F661F771FC1
:1039A0008A95D2F780910A0290910B02A0910C02A5
:1039B000B0910D028A019B01082719272A273B276E
:1039C000C901B8011F910F910C94041C0F931F9310
:1039D00000910A0210910B0220910C0230910D020D
:1039E000602B712B822B932B1F910F910C94041C35
:1039F0000F931F9300910A0210910B0220910C0269
:103A000030910D0260237123822393231F910F9124
:103A10000C94041C0F931F9300910A0210910B0247
:103A200020910C0230910D02602771278227932785
:103A30001F910F910C94041C08954F925F926F9206
:103A40007F929F92AF92BF92CF92DF92EF92FF92BE
:103A50000F931F93CF93DF9300D000D01F92CDB769
:103A6000DEB76B837C838D838A018C819D81892B5A
:103A700039F01F3F19F481E04F3F19F080E001C099
:103A800081E080FD6AC0A12EB12CC02ED12C8B818B
:103A9000882309F456C040900A0250900B026090AF
:103AA0000C0270900D0280910E0290910F02A09175
:103AB0001002B0911102482A592A6A2A7B2A8FE102
:103AC000E82EF12C9E2CD301C2010E2C04C0B69519
:103AD000A795979587950A94D2F780FD2BC081E032
:103AE000E81AF10878F7912C8FE08A9DF0018B9D00
:103AF000F00D1124E154FE4FEC0DFD1D9082098361
:103B00001A8369817A81892D0F900F900F900F9001
:103B10000F90DF91CF911F910F91FF90EF90DF9069
:103B2000CF90BF90AF909F907F906F905F904F909D
:103B30000C94B020B8018E2D0E94B020019779F22C
:103B4000D3CF8FE08A9DF0018B9DF00D1124E154BD
:103B5000FE4FEC0DFD1D9080D2CF90E080E00F90E5
:103B60000F900F900F900F90DF91CF911F910F91B9
:103B7000FF90EF90DF90CF90BF90AF909F907F909D
:103B80006F905F904F90089590910B01992369F188
:103B900090910C01992349F1E82FE695E695E69579
:103BA000EF3191F020910D0130910E01E20FF32FD2
:103BB000F11D877021E030E001C0220F8A95EAF7FD
:103BC0008181822B818308959091350290FF22C0DC
:103BD0001F928F9383EC95E09F938F930E94B00781
:103BE0000F900F900F900F90089520910D0130913C
:103BF0000E01F90132969FEF40E05191851751F087
:103C00009F3F19F4511101C0942F4F5F4E31A9F716
:103C10009F3F09F40895290F311D97FD3A95F90149
:103C20008283089590910B01992379F190910C0171
:103C3000992359F1E82FE695E695E695EF31A1F045
:103C400020910D0130910E01E20FF32FF11D282F6D
:103C5000277081E090E001C0880F2A95EAF78095EF
:103C600091818923818308959091350290FF1EC030
:103C70001F928F9385EA95E09F938F930E94B007E0
:103C80000F900F900F900F90089520910D0130919B
:103C90000E01F9013296205E3F4F9191891303C0C6
:103CA000DF0111971C92E217F307B9F7089581E03D
:103CB00090E0E0910D01F0910E01E80FF91F1082E4
:103CC000019680329105A9F70895809134020895F4
:103CD00090913402892B809334020895982F909507
:103CE00080913402892380933402089580933402B2
:103CF000089510923402089590913302892B809395
:103D000033020895982F90958091330289238093F0
:103D10003302089510923302089580931202089599
:103D200010921202089520910D0130910E01F901B7
:103D30003196205E3F4F80E0919191118F5FE217A5
:103D4000F307D1F70895E0910D01F0910E018091F4
:103D500034028083E0910D01F0910E0180819091F9
:103D60003302892B808390911202992361F0E091B4
:103D70000D01F0910E018081892B80830E94931E9A
:103D800081111092120280910D0190910E010C94FC
:103D90004A1190933B0180933A010895829590E0F7
:103DA0009C01220F331F220F331F2C7C9595879582
:103DB000959587958373282B30E0C901880F991F4B
:103DC0008A7A359527952575822B0895CF93DF93B1
:103DD000D92F0E94CE1EC82F8D2F0E94CE1E9C2F41
:103DE000DF91CF9108950895CF93DF9300D000D055
:103DF0001F92CDB7DEB70F900F900F900F900F90DE
:103E0000DF91CF910895089508950C94CC120895F0
:103E100080914A02843021F11092360288E190E0CC
:103E200020E40FB6F894A895809360000FBE20930D
:103E3000600083B7817F846083BF83B7816083BF65
:103E40007894889583B78E7F83BF0FB6F894A89532
:103E500080916000886180936000109260000FBEC6
:103E60000895CF930E9404130E941A080E9405131C
:103E7000C0E08C2F0E947909892B31F4CF5FC530C7
:103E8000C1F780E0CF91089581E0FCCF0E94CE126F
:103E90000C94D8171F920F920FB60F9211248F9384
:103EA0009F93AF93BF9380913602811113C080918D
:103EB000370290913802A0913902B0913A024196AE
:103EC000A11DB11D8093370290933802A09339024F
:103ED000B0933A02BF91AF919F918F910F900FBE17
:103EE0000F901F90189582E084BD93E095BD9AEFE6
:103EF00097BD80936E0008952FB7F8948091370294
:103F000090913802A0913902B0913A022FBF0895E2
:103F10002FB7F8946091370270913802809139027E
:103F200090913A022FBF0895CF92DF92EF92FF92C5
:103F30000F931F932FB7F894409137025091380296
:103F40006091390270913A022FBF6A017B01EE2421
:103F5000FF248C0130E020E0C016D106E206F30613
:103F600050F0481B590BCA011F910F91FF90EF9021
:103F7000DF90CF90089541505109F3CF1F920F92D7
:103F80000FB60F9211248F939F93AF93BF9380919D
:103F9000370290913802A0913902B0913A0201960D
:103FA000A11DB11D8093370290933802A09339026E
:103FB000B0933A02BF91AF919F918F910F900FBE36
:103FC0000F901F9018950E945B0EF8942FEF87EAD0
:103FD00091E6215080409040E1F700C0000087E06A
:103FE00090EBDC018093540290935502A09356020B
:103FF000B093570288E19CE00FB6F894A89580939F
:1040000060000FBE90936000FFCF8D3B60F4883A54
:1040100080F5853A18F58430F8F4813009F481C0D0
:1040200090E080E00895883E90F4803EA8F48F3BB5
:10403000B9F70E94D8172FEF80E792E02150804017
:104040009040E1F700C000000E94E31FE9CF803FED
:1040500038F390E09065089590E0089531E8853A4E
:1040600021F033E8863A09F432E820E4832F922FD6
:104070000895883A59F1893A61F18A3A61F18B3AA7
:1040800061F18C3A61F18D3A61F18E3A61F18F3ACA
:1040900061F1813B61F1803B61F1823B61F1833BE6
:1040A00069F1843B69F1853B69F1863B69F1873BA6
:1040B00071F1883B71F1893B71F18A3B71F18B3B66
:1040C00071F130E08C3B19F43AE21FC032EE24E487
:1040D000CDCF39EEFCCF3AEEFACF35EBF8CF36EB59
:1040E000F6CF33EBF4CF34EBF2CF37EBF0CF3CEC41
:1040F000EECF3DECECCF33E825E4B8CF3AE8FCCF87
:1041000032E9FACF34E9F8CF31E226E4AFCF33E237
:10411000FCCF34E2FACF35E2F8CF36E2F6CF37E221
:10412000F4CF81E090E008950895E62FF0E09FE05D
:10413000799FE00DF11D11249BE4899FE00DF11D95
:104140001124EC50FE4F84910895282F205C330BEE
:10415000F901EE0FFF1FEC53FE4F859194910895E6
:104160000E949520803ED0F4803C88F5813309F48C
:1041700052C040F4893209F448C08A3209F451C06F
:104180000C940520893329F1823819F18533C1F760
:104190008091530285FF3DC089E2F2CF833E39F121
:1041A00060F4803EE1F0823E59F78091530282FF35
:1041B00022C084FF1AC080E0E3CF863EF1F0873E44
:1041C000F9F68091530283FF1CC086EED9CF0C9480
:1041D000A52090915302937099F280EED1CF8091F7
:1041E000530280FFFACF89E3CBCF83EEC9CF809112
:1041F000530282FFDECF82EEC3CF8091530283FF52
:10420000E4CF84FDD8CF87EEBBCF8091530285FFEA
:10421000C3CF85E3B5CF8091530286FF06C08AE203
:10422000AFCF8091530286FFFACF81E3A9CFAF923F
:10423000BF92CF92DF92EF92FF920F931F93CF9393
:104240007C01C0E0CC24C394D12C8C2F0E9479092E
:104250005C0110E000E0C601002E02C0880F991F2B
:104260000A94E2F78A219B21892BE9F0602F7C2FA9
:1042700080E00E94B0208E159F0551F0292F207EEE
:10428000392F307C11F0203A71F48E151F0459F447
:1042900081E0CF911F910F91FF90EF90DF90CF9031
:1042A000BF90AF9008950F5F1F4F0F30110599F623
:1042B000CF5FC53051F680E0ECCFCF93DF93EC01B8
:1042C0008CE290E00E941721882329F0CE01DF9133
:1042D000CF910C94172180E0DF91CF910895CF9377
:1042E0000E94B822811102C00E949E2288EE95E0B1
:1042F0000E941707C5E6C15009F0F0C081EE95E0B5
:104300000E94170789E290E00E945D21811114C18B
:104310008AE290E00E945D2181110E949E2285E048
:1043200090E00E945D2181110E94E31F0E94071FFF
:104330000E94C3228093350287E090E00E945D21B5
:10434000882379F08BE190E00E945D21882309F4B5
:10435000CEC090913502892F8D7F91FF826080932E
:104360003502809135020E94C7220E94D522809397
:10437000530280EE90E00E945D21882341F09091ED
:104380005302892F8E7F90FF81608093530289E3CF
:1043900090E00E945D21882341F090915302892F83
:1043A0008D7F91FF82608093530282EE90E00E94A5
:1043B0005D21882341F090915302892F8B7F92FFDA
:1043C00084608093530286EE90E00E945D218823F2
:1043D00041F090915302892F877F93FF88608093EB
:1043E000530283EE90E00E945D21882341F090917A
:1043F0005302892F8F7E94FF80618093530285E35F
:1044000090E00E945D21882341F090915302892F12
:104410008F7D95FF80628093530281E390E00E943C
:104420005D21882341F090915302892F8F7B96FF65
:1044300080648093530281E190E00E945D21882393
:1044400041F090915302892F97FB87F98058809310
:104450005302809153020E94D9228091530287FB1C
:10446000882780F980930C0187E290E00E945D210B
:10447000C82F8EE190E00E945D218111C2608FE122
:1044800090E00E945D218111C46080E290E00E9472
:104490005D218111C86081E290E00E945D2181115F
:1044A000C06182E290E00E945D218111C06283E2DE
:1044B00090E00E945D218111C06484E290E00E943E
:1044C0005D21882399F1C0688C2F0E94D0226C2F27
:1044D00070E090E080E0CF910C940F1C0E941A08CD
:1044E0008FE39CE90197F1F700C0000004CF8EE054
:1044F00090E00E945D21882339F090913502892F48
:104500008B7F92FF84602BCF80E190E00E945D2141
:1045100090913502882329F0892F877F93FF886047
:104520001ECF892F8E7F90FF816019CFC111CCCF14
:104530000E94CC22682FCCCFCF9108956DEE7EEFF4
:1045400090E080E00E940B2C60E082E090E00E940E
:10455000FD2B60E083E090E00E94FD2B60E084E0B2
:1045600090E00E94FD2B60E085E090E00C94FD2B34
:1045700090E080E00E94F72B21E08D3E9E4F09F0F5
:1045800020E0822F089582E090E00C94EF2B682FBA
:1045900082E090E00C94FD2B83E090E00C94EF2BF4
:1045A000682F83E090E00C94FD2B84E090E00C9465
:1045B000EF2B682F84E090E00C94FD2B80913D025E
:1045C00080FF12C06091120185E0689FB001112444
:1045D000759567957595679560387105A8F56115AE
:1045E0007105A1F1862F089581FF09C06091120124
:1045F00085E0689FB001112475956795EDCF82FF26
:1046000007C06091120185E0689FB0011124E4CFDA
:1046100020913E022223A9F0909111016091120194
:1046200085E0689FB00111242917B0F6269FA001EC
:10463000279F500D1124692F70E0CA010E94C12BE1
:10464000CBCF65E070E0CECF8FE7089581E008958D
:1046500080913D0280FF0CC06091100170E0759563
:104660006795759567956115710549F1862F0895D0
:1046700081FF06C06091100170E075956795F3CFDA
:104680006091100182FD0BC090913E029923A1F030
:1046900060910F0180911001961738F0682F70E03B
:1046A0006038710500F38FE70895899FC0011124D8
:1046B00070E00E94C12BF4CF61E070E0D7CF81E0C1
:1046C0000895803F31F40E94DE228195809341025B
:1046D0000895813F19F40E94DE22F8CF823F31F421
:1046E0000E94DE228195809340020895833F19F451
:1046F0000E94DE22F8CF893F29F40E94282380936C
:10470000420208958A3F21F40E9428238195F7CF21
:104710008B3F31F40E9428238195809343020895B2
:104720008C3F19F40E942823F8CF843F31F4809104
:104730003F02816080933F020895853F21F480917C
:104740003F028260F7CF863F21F480913F02846070
:10475000F1CF873F21F480913F028860EBCF883F03
:1047600021F480913F028061E5CF8D3F31F480914B
:104770003D02816080933D0208958E3F21F4809137
:104780003D028260F7CF8F3FB9F780913D02846090
:10479000F1CF803FC1F48091410287FD1092410228
:1047A0008091400281110EC08091410281110AC0A6
:1047B00080914202811106C080914302811102C0A2
:1047C00010923E020895813F29F48091410218160B
:1047D0002CF3E6CF90914002823F29F497FFE0CF7F
:1047E00010924002DDCF833F19F41916CCF3D8CFD5
:1047F000893F39F480914202181694F610924202D1
:10480000CFCF8A3F29F48091420287FFC9CFF6CFEC
:104810008B3F39F48091430287FFC2CF109243024D
:10482000BFCF8C3F29F4809143021816BCF3B8CF58
:10483000843F31F480913F028E7F80933F02B0CF5E
:10484000853F21F480913F028D7FF7CF863F21F491
:1048500080913F028B7FF1CF873F21F480913F020F
:10486000877FEBCF883F21F480913F028F7EE5CF99
:104870008D3F31F480913D028E7F80933D0290CF39
:104880008E3F21F480913D028D7FF7CF8F3F09F05D
:1048900087CF80913D028B7FF0CF8091350283FFDF
:1048A0007EC084E296E00E94170780913F021F922B
:1048B0008F938FE196E09F938F930E94B0078DE1D5
:1048C00096E00E94170780914002282F082E000CC6
:1048D000330B3F938F938AE196E09F938F930E94CF
:1048E000B00788E196E00E94170780914102282FC7
:1048F000082E000C330B3F938F9385E196E09F9336
:104900008F930E94B00783E196E00E941707809181
:104910004202282F082E000C330B3F938F9380E127
:1049200096E09F938F930E94B0078EE096E00E94DE
:10493000170780914302282F082E000C330B3F935A
:104940008F938BE096E09F938F930E94B00788E04F
:1049500096E00E94170780913E021F928F9385E098
:1049600096E09F938F930E94B00783E096E00E94A9
:10497000170780913D021F928F9380E096E09F93EE
:104980008F930E94B0078DEF95E00E9417078DB7B7
:104990009EB74C960FB6F8949EBF0FBE8DBF8FE3A7
:1049A00092E00E9496110E947C1F90933C0280939B
:1049B0003B0208951F93CF93DF9380913B02909128
:1049C0003C020E94941FAC0190913E022091130181
:1049D00030E0911106C0209114018AE0289F9001D7
:1049E00011244217530780F080914002C091410288
:1049F00010914202D091430281110AC0C11178C0C6
:104A0000111176C0D11174C0DF91CF911F9108951B
:104A10009F3F19F09F5F90933E02181624F40E9466
:104A2000DE22809340028091400287FF05C00E94F1
:104A3000DE228195809340021C1624F40E94DE221F
:104A4000809341028091410287FF05C00E94DE22CF
:104A500081958093410260914002662331F1C091BB
:104A60004102CC2311F1062E000C770B880B990B19
:104A70000E94BC2A23E333E343E35FE30E94202B3D
:104A80000E94842A609340026C2FCC0F770B880B16
:104A9000990B0E94BC2A23E333E343E35FE30E94C4
:104AA000202B0E94842A60934102111624F40E9454
:104AB0002823809342028091420287FF05C00E9412
:104AC00028238195809342021D1624F40E942823F6
:104AD000809343028091430287FF05C00E942823F0
:104AE000819580934302DF91CF911F910C944D24C7
:104AF0009F3F09F08FCFA0CF85E0EFE3F2E0DF0129
:104B00001D928A95E9F710923E0210923D02089597
:104B100087E498E00E9417071F9281E08F931F920D
:104B200085E08F9389EF97E09F938F930E94B00762
:104B30000F900F900F900F900F900F90089583306B
:104B400009F445C028F4813061F0823049F10895BC
:104B5000853009F46AC008F451C0863009F47CC07D
:104B6000089580911401482F460F5527551F4F3F38
:104B7000510594F4680F60931401809114011F9201
:104B80008F9382E397E09F938F930E94B0070F90DB
:104B90000F900F900F9008958FEF80931401EDCF39
:104BA00080911301482F460F5527551F4F3F510540
:104BB00054F4680F60931301809113011F928F9337
:104BC00080E297E0E0CF8FEF80931301F5CF8091E3
:104BD0001201482F460F5527551F4F3F510554F4DA
:104BE000680F60931201809112011F928F938DE0E4
:104BF00097E0C9CF8FEF80931201F5CF809111011B
:104C0000482F460F5527551F4F3F510554F4680F45
:104C100060931101809111011F928F9388EF96E0AC
:104C2000B2CF8FEF80931101F5CF80911001482F03
:104C3000460F5527551F4F3F510554F4680F609399
:104C40001001809110011F928F938FED96E09BCF02
:104C50008FEF80931001F5CF80910F01482F460F01
:104C60005527551F4F3F510554F4680F60930F01AE
:104C700080910F011F928F9384EC96E084CF8FEF89
:104C800080930F01F5CF8330C9F128F4813061F0B2
:104C9000823019F10895853009F452C008F43FC0FC
:104CA000863009F45EC0089580911401681790F46D
:104CB000861B80931401809114011F928F9385EBC2
:104CC00096E09F938F930E94B0070F900F900F90E4
:104CD0000F90089510921401EECF80911301681780
:104CE00050F4861B80931301809113011F928F93C0
:104CF00083EA96E0E6CF10921301F6CF809112017D
:104D0000681750F4861B80931201809112011F9244
:104D10008F9380E996E0D5CF10921201F6CF809163
:104D20001101681750F4861B8093110180911101C5
:104D30001F928F938BE796E0C4CF10921101F6CFAC
:104D400080911001681750F4861B809310018091A8
:104D500010011F928F9382E696E0B3CF109210015C
:104D6000F6CF80910F01681750F4861B80930F01D6
:104D700080910F011F928F9387E496E0A2CF10924B
:104D80000F01F6CFCF93C82F1F928F938CE499E039
:104D90009F938F930E94B00761E070E080E090E005
:104DA00004C0660F771F881F991FCA95D2F70E940B
:104DB0000F1C0F900F900F900F90CF910C94D8175D
:104DC000CF938B3109F4D7C108F04AC08E3009F473
:104DD000E2C1B8F4873009F4B7C148F4863009F469
:104DE000A1C180E69BE00E941707C0E036C2883070
:104DF00009F468C08B30A9F788E799E00E9417078B
:104E00008FC1813109F41BC278F4803151F7909140
:104E10003502892F877F93FF88608093350283FF57
:104E2000CAC184E09DE0A1C1863109F4C7C18931BE
:104E3000C1F688EE9CE00E9417078FEB9CE00E9471
:104E400017078AE89CE00E94170783E69CE00E940F
:104E500017078EE19CE00E94170783EF9BE0CECFFF
:104E6000853361F078F4873249F028F48E3108F404
:104E7000B8CF8D5104C0893209F0B3CF80E00E94D1
:104E8000C2264EC1833438F48A3308F0ECC188332B
:104E900009F4B2CFA6CF833489F3883409F0A1CFC7
:104EA0000E94D81783E69DE00E9417079FEF23ED2D
:104EB00080E3915020408040E1F700C000000E9454
:104EC000E31F2EC188E79DE00E94170780E59BE065
:104ED0000E9417070E94CC221F928F938DE49BE0C3
:104EE0009F938F930E94B0078BE49BE00E9417076B
:104EF0000E94C322C82F88E39BE00E9417071F92DD
:104F0000CF9383E39BE09F938F930E94B00781E34D
:104F10009BE00E94170787E29BE00E9417078C2FF7
:104F200081701F928F9384E29BE09F938F930E94E6
:104F3000B00782E29BE00E94170788E19BE00E9495
:104F40001707C1FB882780F91F928F9385E19BE0AB
:104F50009F938F930E94B00783E19BE00E94170705
:104F600087E09BE00E941707C2FB882780F91F9209
:104F70008F9384E09BE09F938F930E94B00782E021
:104F80009BE00E94170789EF9AE00E941707C3FB76
:104F9000CC27C0F91F92CF9386EF9AE09F938F930F
:104FA0000E94B00784EF9AE00E9417070E94D52262
:104FB000C82F80EE9AE00E9417071F92CF938BEDC7
:104FC0009AE09F938F930E94B00789ED9AE00E9428
:104FD000170780EC9AE00E9417078C2F81701F92B0
:104FE0008F938DEB9AE09F938F930E94B0078DB7BC
:104FF0009EB780960FB6F8949EBF0FBE8DBF8BEB09
:105000009AE00E94170784EA9AE00E941707C1FB02
:10501000882780F91F928F9381EA9AE09F938F935C
:105020000E94B0078FE99AE00E9417078DE89AE086
:105030000E941707C2FB882780F91F928F938AE886
:105040009AE09F938F930E94B00788E89AE00E94AD
:10505000170786E79AE00E941707C3FB882780F9A5
:105060001F928F9383E79AE09F938F930E94B007DC
:1050700081E79AE00E94170787E69AE00E941707E7
:10508000C4FB882780F91F928F9384E69AE09F9350
:105090008F930E94B00782E69AE00E94170780E58E
:1050A0009AE00E941707C5FB882780F91F928F930B
:1050B0008DE49AE09F938F930E94B0078BE49AE06F
:1050C0000E9417078FE29AE00E941707C6FB882705
:1050D00080F91F928F938CE29AE09F938F930E94A6
:1050E000B0078AE29AE00E94170782E29AE00E94E3
:1050F0001707C7FBCC27C0F91F92CF938FE19AE027
:105100009F938F930E94B0078DE19AE00E9417074A
:105110008DB79EB74C960FB6F8949EBF0FBE8DBF4D
:10512000C1E09BC080913502817F8E7F80933502E4
:1051300081E599E00E94170784E79DE00E94170728
:1051400081E080934502ECCF8091350280FF0BC057
:1051500086E59DE00E94170780913502817F8E7F52
:1051600080933502DDCF8AE49DE00E94170780918D
:1051700035028160F5CF90913502892F8D7F91FFA7
:1051800082608093350281FF03C08DE39DE0EDCF07
:105190008FE29DE033CE90913502892F8B7F92FF75
:1051A00084608093350282FF03C080E29DE0DDCF02
:1051B00080E19DE023CE87EF9CE020CE85EE9BE052
:1051C0000E9417070E943E111F928F938BEC9BE069
:1051D0009F938F930E94B00780910B011F928F9332
:1051E00084EB9BE09F938F930E94B00780917501A1
:1051F0001F928F9381EA9BE09F938F930E94B00749
:1052000080910C011F928F938EE89BE09F938F9368
:105210000E94B0070E94881F9F938F937F936F9384
:1052200087E79BE09F938F930E94B0078DB79EB74F
:1052300046960FB6F8949EBF0FBE8DBF71CF0E94E9
:10524000D817C0910C0181E0C827C0930C01CC2372
:1052500039F08DE69BE00E9417078C2FCF910895BF
:1052600082E69BE0CBCD89530ACE80E008950C9472
:105270003529CF93C82F809145028130D1F038F085
:10528000823009F44DC01092450280E010C0E091D8
:105290000D01F0910E0180818232B9F78C2F0E94AE
:1052A000352981111EC08C2F0E94E0268170CF917C
:1052B0000895E0910D01F0910E018081823271F329
:1052C0008C2F0E94372981111BC0C431D9F060F4A2
:1052D000CB3071F0C031D1F082E499E00E94170721
:1052E00013C081E090E0E2CFC93261F0C833A1F78A
:1052F00081E599E00E94170788E499E00E9417076A
:1053000081E0D4CF1092450280E0D0CF0E94882562
:1053100084E499E00E94170782E080934502F0CF71
:10532000C432C8F4CE3108F0BEC0CB30E1F040F456
:10533000C73009F4CFC086EE97E00E94170726C059
:10534000C331C1F1C431B9F780914402882351F1CE
:10535000109244020AC0CB3409F4BAC0C8F4C9326E
:1053600099F3C83341F70E9488258091440288232D
:1053700009F4C7C01F928F9380EE97E09F938F939D
:105380000E94B0070F900F900F900F9081E08FCF89
:10539000C13509F497C0C23509F48EC0CE3459F630
:1053A0006AE091C085EF97E00E94170781E0809343
:1053B00045027DCF8FEC97E00E9417078DEB97E0B9
:1053C0000E941707809114011F928F938AEB97E038
:1053D0009F938F930E94B00788EB97E00E94170776
:1053E00086EA97E00E941707809113011F928F931E
:1053F00083EA97E09F938F930E94B00781EA97E03A
:105400000E94170782E997E00E9417078091120116
:105410001F928F938FE897E09F938F930E94B0071E
:105420008DE897E00E9417078CE797E00E94170726
:10543000809111011F928F9389E797E09F938F933B
:105440000E94B00787E797E00E94170782E697E07F
:105450000E941707809110011F928F938FE597E0AC
:105460009F938F930E94B0078DE597E00E941707E6
:1054700086E497E00E94170780910F011F928F9397
:1054800083E497E09F938F930E94B00781E497E0B5
:105490000E9417078DB79EB748960FB6F8949EBF27
:1054A0000FBE8DBF62CFCE51EC2FF0E0E15DFE4F1D
:1054B00080818093440259CF61E0809144020E9430
:1054C0009F2553CF61E0809144020E9443264DCF37
:1054D0006AE0F3CF8EE18093140182E3809313019D
:1054E0008AE08093120184E18093110188E0809327
:1054F000100188E280930F0188EE97E00E94170761
:1055000034CF8DED97E019CF0E948B2A6894B111AA
:105510000C941A2B08950E94FF2A88F09F5798F048
:10552000B92F9927B751B0F0E1F0660F771F881FA8
:10553000991F1AF0BA95C9F714C0B13091F00E94C2
:10554000192BB1E008950C94192B672F782F882719
:10555000B85F39F0B93FCCF3869577956795B395E9
:10556000D9F73EF490958095709561957F4F8F4F58
:105570009F4F0895E89409C097FB3EF4909580955D
:10558000709561957F4F8F4F9F4F9923A9F0F92F09
:1055900096E9BB279395F695879577956795B79587
:1055A000F111F8CFFAF4BB0F11F460FF1BC06F5F6D
:1055B0007F4F8F4F9F4F16C0882311F096E911C07F
:1055C000772321F09EE8872F762F05C0662371F0A0
:1055D00096E8862F70E060E02AF09A95660F771FB4
:1055E000881FDAF7880F9695879597F9089557FDE4
:1055F0009058440F551F59F05F3F71F04795880F41
:1056000097FB991F61F09F3F79F0879508951216D7
:1056100013061406551FF2CF4695F1DF08C0161683
:1056200017061806991FF1CF869571056105089434
:105630000895E894BB2766277727CB0197F908954B
:105640000E94332B0C94A42B0E94962B38F00E94BE
:105650009D2B20F0952311F00C948D2B0C94932B03
:1056600011240C941A2B0E94F72A70F3959FC1F312
:10567000950F50E0551F629FF001729FBB27F00D00
:10568000B11D639FAA27F00DB11DAA1F649F662755
:10569000B00DA11D661F829F2227B00DA11D621FA4
:1056A000739FB00DA11D621F839FA00D611D221F5E
:1056B000749F3327A00D611D231F849F600D211D42
:1056C000822F762F6A2F11249F5750409AF0F1F0C5
:1056D00088234AF0EE0FFF1FBB1F661F771F881F2E
:1056E00091505040A9F79E3F510580F00C948D2BAE
:1056F0000C941A2B5F3FE4F3983ED4F3869577958C
:105700006795B795F795E7959F5FC1F7FE2B880FD3
:10571000911D9695879597F9089597F99F6780E869
:1057200070E060E008959FEF80EC089500240A94F3
:105730001616170618060906089500240A9412166C
:105740001306140605060895092E0394000C11F49F
:10575000882352F0BB0F40F4BF2B11F460FF04C04C
:105760006F5F7F4F8F4F9F4F0895991B79E004C063
:10577000991F961708F0961B881F7A95C9F7809590
:10578000089597FB072E16F4009407D077FD09D0F3
:105790000E94DB2B07FC05D03EF4909581959F4F2E
:1057A0000895709561957F4F0895EE0FFF1F059046
:1057B000F491E02D0994AA1BBB1B51E107C0AA1F5D
:1057C000BB1FA617B70710F0A61BB70B881F991FA2
:1057D0005A95A9F780959095BC01CD010895F99946
:1057E000FECF92BD81BDF89A992780B50895A8E1B2
:1057F000B0E042E050E00C94122C262FF999FECF35
:105800001FBA92BD81BD20BD0FB6F894FA9AF99ADD
:105810000FBE019608950E94FD2B272F0C94FE2B9E
:10582000DC01CB01FC01F999FECF06C0F2BDE1BD60
:10583000F89A319600B40D9241505040B8F708954F
:04584000F894FFCF0A
:105844000589097C0A570A230AEF09010113022872
:1058540008140A321E404D3622390405B704810467
:105864005F0426049903B203CB03E4030404000198
:0A58740002030405060708090000FE
:00000001FF
